:020000040800F2
:10000000005000204D060008910600087F020008FD
:10001000850200088B020008910200080000000021
:100020000000000000000000000000009106000831
:10003000910600080000000091060008E505000890
:100040009106000891060008910600089106000834
:100050009106000891060008910600089106000824
:100060009106000891060008910600089106000814
:100070009106000891060008910600089106000804
:1000800091060008910600089106000891060008F4
:1000900091060008910600089106000891060008E4
:1000A00091060008910600089106000891060008D4
:1000B00091060008910600089106000891060008C4
:1000C00091060008910600089106000891060008B4
:1000D00091060008910600089106000891060008A4
:0C00E00091060008910600089106000837
:1000EC000C4A136843F0010313600A4B1B6813F0AE
:1000FC00020FFAD0074A00215160136823F0847371
:10010C0023F4803313609160034B1960034B044A52
:10011C001A607047001002400020024000000020CE
:10012C0000127A0008B500F071F8014B186008BD98
:10013C000000002008B5FFF7D3FF044A044B9A6077
:10014C0000F028F8FFF7EEFF08BD00BF0000000824
:10015C0000ED00E010B44FF4A02403680B40934270
:10016C0002D024B1013CF8E7012010BC70470020FC
:10017C00FBE70000C0F30310014B33F8100070478D
:10018C009C06000800F00700014B185C704700BF8C
:10019C009406000808B51748036843F480330360DD
:1001AC004FF400321146FFF7D5FF00B908BD124BD2
:1001BC0012221A600F48114B4360036843F080739E
:1001CC0003604FF000721146FFF7C4FF0028EDD01A
:1001DC00084A536823F0030343F0020353600822D8
:1001EC000C210748FFF7B6FF0028DFD0054B064A65
:1001FC001A60DBE7001002400020024000841D0062
:10020C00041002400000002000A24A0410B50C4B60
:10021C00586800F00C03082B05D00A4CFFF7AAFF16
:10022C00B4FBF0F010BDC0F38343023310F4803FF5
:10023C0003D0044C03FB04F4F0E7034CFAE700BFD3
:10024C000010024000127A0000093D0038B5064B40
:10025C005D68FFF7DBFF0446C5F3C220FFF792FF92
:10026C00B4FBF0F038BD00BF0010024072B600BE07
:10027C00FDE708B5FFF7FAFF08B5FFF7F7FF08B57C
:10028C00FFF7F4FF08B5FFF7F1FF08B501220D21C8
:10029C00022000F00FF908BD08B50D21022000F076
:1002AC001AF908BD08B500F055F908BD08B500F0FD
:1002BC005BF908BD10B584B010B10246002414E0FF
:1002CC003020FFF7EFFF1EE0104BA3FB0213DB08FF
:1002DC00194603EB8303A2EB4303303304F1100202
:1002EC006A4402F80C3C0A46013452B1092CEBD991
:1002FC0007E0013C04F110036B4413F80C0CFFF7FE
:10030C00D1FF002CF5D104B010BD00BFCDCCCCCCAE
:10031C0008B5FFF7CBFF0248FFF7C8FF08BD00BFC9
:10032C00BC06000808B50F48FFF7F2FF0E48FFF7B0
:10033C00EFFF0E48FFF7ECFF0D48FFF7B7FF00F09B
:10034C0043F8FFF7B7FF0B48FFF7E2FF00F042F866
:10035C0018B10948FFF7DCFF08BD0848FFF7D8FFC4
:10036C00FAE700BF00070008C0060008D406000822
:10037C00F406000804070008080700082C0700080A
:10038C0008B5022000F05EF802220D21104600F0A4
:10039C0073F8FFF77AFFFFF759FF01464FF4E1308E
:1003AC0000F0AEF8034B186800F0EAF8FFF7BAFF5C
:1003BC0008BD00BF0000002008B500F0FBF808BD28
:1003CC0008B500F0FDF808BD014B1868704700BF78
:1003DC0000000020034B1868034B984214BF002008
:1003EC00012070470000002000A24A04012807D019
:1003FC00022807D040B900F1804000F584307047E6
:10040C00024870470248704700207047000C0140BA
:10041C0000100140034680B10F290ED807290DD8D2
:10042C00890018684FF00F0C0CFA01FC20EA0C0044
:10043C0002F00F028A4002431A60704704330839F5
:10044C008900EEE7012808D002280CD080B9094AAF
:10045C00936943F0040393617047064A936943F030
:10046C00080393617047034A936943F01003936147
:10047C00704700BF0010024038B50C461546FFF718
:10048C00B5FF2A462146FFF7C5FF38BD38B50C46E7
:10049C0042F00805FFF7AAFF2A462146FFF7BAFFEC
:1004AC0038BD10B50C46FFF7A1FF04222146FFF71B
:1004BC00B1FF10BD38B50C461546FFF797FF28B1B4
:1004CC000F2C03D81DB10122A240026138BD0122BC
:1004DC00A2404261FAE710B50C46FFF787FF48B11E
:1004EC000F2C07D8C368E34013F0010F03D001238E
:1004FC00A340436110BD0123A3400361FAE7000050
:10050C0010B338B50C46054601B938BD0F4A93698E
:10051C0043F4804343F00503936103220921002037
:10052C00FFF7B4FF0A210020FFF7BBFF084B0022A6
:10053C00DA601A615A6104EB5501B1FBF5F199606F
:10054C0042F20C02DA60E0E7704700BF0010024094
:10055C0000380140034B1B6813F0800FFAD0014B9D
:10056C00586070470038014010B5044618B905E0D2
:10057C00FFF7F0FF013420780028F9D110BD0000FE
:10058C00B0F57A7F11D3094BA3FB003080090138F9
:10059C00B0F1807F09D20022054B1A604FF0E023A6
:1005AC001A6158619A6107221A617047D34D621023
:1005BC0004000020014B1868704700BF04000020A5
:1005CC00044B1A6800E030BF024B1B689B1A834235
:1005DC00F9D3704704000020024A136801331360FA
:1005EC00704700BF0400002010B5FFF7C9FE0F488C
:1005FC00FFF78EFE0E48FFF78BFE0024FFF74CFE34
:10060C0001340C48FFF752FE2046FFF753FE0A4810
:10061C00FFF74CFEFFF7D0FEFFF74CFE0748FFF745
:10062C0077FE4FF4FA70FFF7CBFEE7E760070008A0
:10063C0080070008A0070008AC07000800070008A6
:10064C000B480C490C4A914204D250F8043B41F837
:10065C00043BF8E709480A490022884202D240F8D4
:10066C00042BFAE7FFF766FDFFF7BEFFFEE700007D
:10067C00B80700080000002004000020040000203F
:10068C000800002000BEFDE7010101010204081072
:10069C000100010001000100010001000100010046
:1006AC00020004000800100040008000000100025D
:1006BC000D0A00004861697252544F532050686112
:1006CC007365203100000000426F6172643A204271
:1006DC006C75652050696C6C2053544D3332463127
:1006EC003033433854360000436F726520636C6FAF
:1006FC00636B3A200000000020487A00436C6F6363
:10070C006B20736F757263653A204853452038200F
:10071C004D487A202D3E20504C4C2078390000005A
:10072C005741524E494E473A204853452F504C4C56
:10073C002073746172747570206661696C65643BBA
:10074C00207573696E67204853492066616C6C6232
:10075C0061636B00426172652D6D6574616C20661E
:10076C006F756E646174696F6E2072656164792E49
:10077C00000000004C4544205043313320746F6717
:10078C00676C657320657665727920353030206D25
:10079C00732E00006865617274626561743D0000BF
:0C07AC0020757074696D655F6D733D0011
:0407B80000127A00B1
:040000050800064D9C
:00000001FF
