:020000040800F2
:1000000000500020191200085D120008FD020008CF
:10001000050300080D030008150300080000000098
:1000200000000000000000000000000003010008C4
:100030005D1200080000000027010008AD0700085D
:100040005D1200085D1200085D1200085D120008D4
:100050005D1200085D1200085D1200085D120008C4
:100060005D1200085D1200085D1200085D120008B4
:100070005D1200085D1200085D1200085D120008A4
:100080005D1200085D1200085D1200085D12000894
:100090005D1200085D1200085D1200085D12000884
:1000A0005D1200085D1200085D1200085D12000874
:1000B0005D1200085D1200085D1200085D12000864
:1000C0005D1200085D1200085D1200085D12000854
:1000D0005D1200085D1200085D1200085D12000844
:0C00E0005D1200085D1200085D120008AF
:1000EC0072B6194880F30888BFF34F8FBFF36F8F38
:1000FC0062B600DFFEE71548006860B10068B0E842
:10010C00F00F80F30988022080F31488BFF36F8FFF
:10011C006FF0020E704700BEFDE7EFF309800B4B4A
:10012C001A687AB120E9F00F106008B500F0C6FF2C
:10013C00BDE808401A682AB11068B0E8F00F80F3E7
:10014C000988704700BEFDE70050002054080020CD
:10015C00D0B502AF41F20000C4F20200016841F0D8
:10016C000101016001688907FCD50021416002682A
:10017C004FF6FF73CFF6F6631A400260816042F2CD
:10018C000000C4F20200016040F2000441F20020C1
:10019C00C2F20004C0F27A00206040F200004EF679
:1001AC000851C0F60000CEF20001086000F004F81F
:1001BC0000F04EF82060D0BD41F20000C4F2020005
:1001CC0002680021CFF6FB7142F4803202600A46CD
:1001DC0003689B0303D4002A02F10102F8D1002B1F
:1001EC0034D542F20002C4F202021223136048F228
:1001FC000042C0F21D024260026842F0807202604E
:10020C000A4600BF03689B0103D4002A02F10102D5
:10021C00F8D1002B1AD54268022363F30102426025
:10022C00426802F00C02082A03D0002901F10101F6
:10023C00F6D1082A0AD140F200004AF20021C2F29B
:10024C000000C0F24A410160012070470020704755
:10025C0041F20400C4F20200006800F00C0108290D
:10026C0041F20021C0F27A0109D1C0F3834202327B
:10027C00C3035CBF40F60011C0F23D01514341F293
:10028C006022C0F30310C0F6000232F81000B1FB7C
:10029C00F0F0704741F20401C4F2020108680968E9
:1002AC0001F00C02082A41F20022C0F27A020BD1B2
:1002BC00C1F3834303F1020CCB035CBF40F6001285
:1002CC00C0F23D0202FB0CF241F26023C1F30311B8
:1002DC00C0F6000333F81110C0F3C220B2FBF1F1E9
:1002EC0041F28022C0F60002105CB1FBF0F07047C6
:1002FC0072B600BF00BEFDE772B600BF00BEFDE7E0
:10030C0072B600BF00BEFDE772B600BF00BEFDE7CF
:10031C00B0B502AF84B0022000F0EAF802200D2143
:10032C00022200F0F7F802200D21012200F07CF9E6
:10033C00FFF7B0FF01464FF4E13000F0B5F940F2A1
:10034C000000C2F20000006800F0FEF941F2DB2070
:10035C00C0F6000000F0E4F941F26034C0F600048D
:10036C00204600F0DDF941F23140C0F6000000F00B
:10037C00D7F9204600F0D4F941F2F830C0F600006D
:10038C0000F0CEF9204600F0CBF941F27B30C0F6FC
:10039C00000000F0C5F900F097F808B34CF6CD4C0E
:1003AC000021CCF6CC4CA7F1120200BFA0FB0C43F1
:1003BC00DC0804EB8403A0EB430343F030035354F9
:1003CC00082901F1010102D809282046EED8541E53
:1003DC00605C4D1E00F09AF9002D2946F8D102E020
:1003EC00302000F093F941F2C030C0F6000000F06C
:1003FC0097F941F26034C0F60004204600F090F901
:10040C0000F068F841F2484141F28832C0F6000130
:10041C00C0F60002002818BF1146084600F080F90B
:10042C00204604B0BDE8B04000F07AB902200D219E
:10043C0000F01AB900F074B9B0B502AF84B020B3B3
:10044C004CF6CD4C0023CCF6CC4CA7F1120200BFDD
:10045C00A0FB0C14E40804EB8401A0EB410141F077
:10046C003001D1540A2803F1010103D3092B0B46A7
:10047C002046EDD3541E00BF605C4D1E00F046F9C3
:10048C00002D2946F8D104B0B0BD302004B0BDE831
:10049C00B04000F03BB9D4D480B56F4600F040F9C1
:1004AC0041F26030C0F60000BDE8804000F038B981
:1004BC0000F068B980B56F4672B602200D2100229B
:1004CC0000F0B2F800BEFDE740F20000C2F20000FE
:1004DC000068704740F20000C2F20000006845F668
:1004EC000061CFF6B5310844B0FA80F0400970478E
:1004FC00022888BF704741F2E041C0F6000151F874
:10050C00200041F21801C4F202010A68104308608D
:10051C007047D4D440F60003C4F2010368B102283A
:10052C0009D0012819BF0023012003F580630020A6
:10053C000F2905D9704703F5006300200F29F9D85E
:10054C00002818BF70476FF01F0000EB81000829CE
:10055C0034BF88000433D3F800C00F21814002F06F
:10056C000F022CEA010102FA00F0084318607047F0
:10057C0040F60003C4F2010368B1022809D0012837
:10058C0019BF0023012003F5806300200F2905D932
:10059C00704703F5006300200F29F9D8002818BF15
:1005AC0070476FF01F0000EB8100082934BF8800F2
:1005BC000433D3F800C00F2181402CEA010C012137
:1005CC0061F3DF0202FA00F040EA0C001860704799
:1005DC0040F60002C4F2010268B1022809D00128D9
:1005EC0019BF0022012002F5806200200F2905D9D5
:1005FC00704702F5006200200F29F9D8002818BFB7
:10060C0070476FF01F0000EB8100082934BF880091
:10061C00043211680F2383409943042303FA00F03A
:10062C00084310607047D4D440F60003C4F20103B1
:10063C0058B1022807D0012819BF0023012003F567
:10064C008063002002E003F5006300200F2988BFBF
:10065C00704738B90120002A00FA01F01CBF18615C
:10066C00704758617047D4D440F60002C4F20102BE
:10067C0058B1022807D0012819BF0022012002F529
:10068C008062002002E002F5006200200F2988BF82
:10069C00704738B9D3680120884003421CBF5061B1
:1006AC00704710617047D4D4002808BF7047F0B56C
:1006BC0003AF4DF804BD0D4619B3044641F21800C2
:1006CC00C4F20200016844F20502114301600020EB
:1006DC00092103220026FFF74BFF00200A21FFF718
:1006EC0077FF05EB540143F60C00B1FBF4F1C4F2B7
:1006FC00010006604660866040F8041C42F20C0162
:10070C0001605DF804BBBDE8F040704743F60001A2
:10071C00C4F201010A681206FCD548607047D4D4B3
:10072C0080B10178002908BF704743F60002C4F27B
:10073C00010200BF13681B06FCD5516010F8011FA5
:10074C000029F7D17047D4D4B0F57A7F38BF704701
:10075C0044F6D351C1F26201A0FB01014FF0FF300E
:10076C0000EB911040F20801C2F2000100220A6075
:10077C004EF21001CEF200010A60486007208A6038
:10078C000860704740F20801C2F200010A6800E0FC
:10079C0030BF0B689B1A834228BF7047F8E7D4D44C
:1007AC0040F20800C2F2000001680131016070479C
:1007BC00B0B502AF84B0FFF7ABFD41F28F20C0F6AD
:1007CC000000FFF769FE41F22230C0F60000FFF78F
:1007DC0063FE00F0BFFB38B141F2C430C0F600003C
:1007EC00FFF75AFEFFF766FE40F25010A025C2F24A
:1007FC000000CDE9000540F2100041F2AD4140F699
:10080C00DD020224C2F20000C0F60001C0F60002B4
:10081C000023029400F074FA38B141F2C540C0F6DE
:10082C000000FFF739FEFFF745FE40F21050C2F210
:10083C000000CDE9000540F2D03041F2882140F6AD
:10084C006512C2F20000C0F60001C0F600020023DF
:10085C00029400F055FA38B141F26330C0F6000052
:10086C00FFF71AFEFFF726FE40F21000C2F200005E
:10087C0000F0D8FA30B940F2D030C2F2000000F0EB
:10088C00D1FA38B141F21740C0F60000FFF704FE70
:10089C00FFF710FE41F2A520C0F60000FFF7FCFDAB
:1008AC0000F066FC044641F2DC20C0F60000FFF7C5
:1008BC00C1FD2046FFF7C0FD41F2DB20C0F6000071
:1008CC00FFF7EAFDFFF7F6FD204604B0B0BDD4D427
:1008DC0080B56F4640F2100B41F2AA3541F2B44696
:1008EC0041F2834841F2043941F27C4A0124C2F2BC
:1008FC00000BC0F60005C0F60006C0F60008C0F6F6
:10090C000009C0F6000A10E0FFF790FD2846FFF73B
:10091C0091FD2046FFF790FD3046FFF7BDFDFA2014
:10092C00FFF7C6FD00F08CFA013400F095FA58453B
:10093C0007D04846FFF77EFD5046FFF7ADFDFFF7A9
:10094C00B9FD00F0B3FA0028DED14046FFF7A4FD54
:10095C00FFF7B0FDD8E7D4D480B56F4640F2D03B5A
:10096C0041F2E23541F2B44641F2834841F2043996
:10097C0041F2BE4A40F2F234C2F2000BC0F600055E
:10098C00C0F60006C0F60008C0F60009C0F6000A62
:10099C000FE000BF2846FFF74DFD2046FFF74CFD4A
:1009AC003046FFF779FDFA20FFF782FD00F048FA98
:1009BC000A3400F051FA584507D04846FFF73AFD83
:1009CC005046FFF769FDFFF775FD00F06FFA002840
:1009DC00E0D14046FFF760FDFFF76CFDDAE7D4D4B9
:1009EC00002808BF70470021C0E90000C0E90201DF
:1009FC000161704700281EBF0022C0E90022C0E937
:100A0C000221704700280FBF01200069B0FA80F066
:100A1C0040097047002814BF006900207047D4D4E7
:100A2C00002804BF002070478068002818BF0120F0
:100A3C007047D4D4002814BFC06800207047D4D4A9
:100A4C0020B1016900291CBF406870470020704725
:100A5C00002804BF012070474FF0010221B1036848
:100A6C0013B18A6812B10222104670470269C1E9BB
:100A7C000030886059600160511C01610020704792
:100A8C0038B182680221002A18BF824204D108467C
:100A9C0070470121084670471169002904BF0220E4
:100AAC007047D0E900C30139CCF8043043681161B8
:100ABC000021C3F800C0C0E90011816008467047EE
:100ACC0028B10169002914BF4168002100E0002110
:100ADC00002904BF0846704780B56F468A6800201D
:100AEC00002A18BF8A4200D180BDD2F810E0BEF1B6
:100AFC00000F08BF80BDD1E900C38860CCF804307A
:100B0C004B68C3F800C0AEF10103C1E90000084610
:100B1C00136180BD002808BF7047B0B502AF144602
:100B2C000546FFF767FF2C74BDE8B0407047D4D47E
:100B3C00002808BF7047B0B502AF0446002500BFBF
:100B4C006019FFF74DFF1435A02DF9D10020C4E931
:100B5C002800BDE8B0407047024600284FF0010065
:100B6C0018BF002900D17047087C072819D8B0B5E8
:100B7C0002AF00EB800002EB800015460C46FFF73D
:100B8C0067FF002818BFB0BD207C29460122D5E99B
:100B9C00283502FA00F018436A1CC1E9280200202B
:100BAC00B0BD01207047D4D4024600284FF001009C
:100BBC0018BF002900D17047087C07280ED8F0B563
:100BCC0003AF4DF804BD00EB80008B6802EB800492
:100BDC00A34205D002205DF804BBF0BD0120704794
:100BEC00084615460E46FFF74BFF0028F3D1D5F803
:100BFC00A4000138C5F8A4002046FFF703FF48B154
:100C0C00307C0121D5F8A02001FA00F022EA000086
:100C1C00C5F8A00000205DF804BBF0BD80B1D0F891
:100C2C00A41069B1D0F8A020002100BF22FA01F372
:100C3C00DB0707D101310829F8D10821072904D98C
:100C4C0000207047C9B20729FAD801EB810100EBEB
:100C5C008100FFF7F5BED4D4D0B502AF88B1D0F87F
:100C6C00A41081B1D0F8A020002100BF22FA01F31A
:100C7C00DB070AD101310829F8D10821072907D946
:100C8C001BE00120D0BD0220D0BDC9B2072914D869
:100C9C0001EB810100EB81042046FFF7BBFE02282B
:100CAC003CBF0020D0BD2046FFF70AFF28B101460B
:100CBC002046BDE8D040FFF7CBBE0A20D0BDD4D42F
:100CCC00002808BF7047B0B502AF14460546FFF7C1
:100CDC0091FE2C74BDE8B0407047D4D4002808BFF6
:100CEC007047D0B502AF0446FFF784FE00202061A8
:100CFC00BDE8D0407047D4D47047D4D4FEE7D4D4E8
:100D0C00F0B503AF2DE9000F83B000284FF00104BC
:100D1C0018BF002904D1204603B0BDE8000FF0BD78
:100D2C00002AF8D0BD68002DF5D0D0F8846045F2CB
:100D3C00534AC4F6520A564501D10224EBE7D7F8C0
:100D4C000C90B9F1200FE6D3D7F81080B8F1070F4B
:100D5C00E1D80026002400BF06550134882CFBD1B5
:100D6C00B9F1000FCDE9010108D0281F4FF0A531D2
:100D7C004C4600BF013C40F8041FFBD14BF6EF6022
:100D8C00CDF6AD6040F609562860C0F60006284640
:100D9C00494693461C46009600F060F80028CCD0DB
:100DAC00019E05EB8901C6E9000502980439012270
:100DBC00C6E9030B0020B160C6E90542C6E908028A
:100DCC00C6E91D09C6E91F0006F128003146424656
:100DDC0086F81C8086F81D80FFF79CFE06F13C000F
:100DEC0031464246FFF76CFF06F150003146FFF7E3
:100DFC0075FF06F164003146FFF7FCFD0024C6F8D0
:100E0C0084A088E7002804BF00207047D0F8840035
:100E1C004AF6AD31CBF2AD710844B0FA80F040091E
:100E2C007047D4D448B1D0F8841045F25342C4F67C
:100E3C005202914208BF00F0E7B801207047D4D4A9
:100E4C0080B56F4600F0D2F9002808BF80BDBDE820
:100E5C00804000F01DB8D4D400F0D2B9DDF800C049
:100E6C00CDF800C000F028B84EF61450CEF20000B9
:100E7C00016841F4007101600021C172FF2181738E
:100E8C008021C173BFF34F8FBFF36F8F7047D4D4E2
:100E9C004EF60450CEF200004FF080510160BFF3CB
:100EAC004F8FBFF36F8F704730BF7047EFF31480D5
:100EBC00C0F340007047D4D4844600284FF00000A3
:100ECC0047D0102938BF7047F0B503AF2DE9000BA0
:100EDC000CEB810020F0070EE6454FF0000034D9F2
:100EEC00AEEB0C01402930D34FF04431D7F808C099
:100EFC004EF8401D4FF055314FF066304FF07734BF
:100F0C004FF09936CEE901100EF10C004FF08835F8
:100F1C004FF0AA384FF0BB3980E870034FF0113016
:100F2C004CF001060EF1240CCEF820304FF022319B
:100F3C004FF033334FF0123422F001024FF0807532
:100F4C008CE85B007046CEE90E25BDE8000BBDE8D1
:100F5C00F0407047D0B502AF84B040F29074C2F24A
:100F6C000004206810B1022004B0D0BD40F294708F
:100F7C00C2F20000FFF7DCFD40F63C00C2F20000BC
:100F8C00FFF72EFD40F65000C2F200000021016078
:100F9C0040F65400C2F20000016040F65800C2F264
:100FAC0000000160012040F6A01120608020C2F2F8
:100FBC000001CDE9001040F6600041F2A02141F2A1
:100FCC0009024FF0070CC2F20000C0F60001C0F697
:100FDC0000020023CDF808C0FFF792FE30B940F6AE
:100FEC006000C2F20000FFF71DFF18B10321216061
:100FFC0004B0D0BD002004B0D0BDD4D480B56F46B1
:10100C00FFF752FFFCE7D4D440F29071C2F200011A
:10101C00096801291CBF02207047F0B503AF4DF8D9
:10102C00048D0446FFF7EEFEE8B140F65806C2F216
:10103C0000063068072803D906205DF8048BF0BD44
:10104C002046FFF759FE0446806901280BD104F1B4
:10105C0028052846FFF7E4FC28B904F1640840464B
:10106C00FFF7DEFC18B102205DF8048BF0BD40F2F6
:10107C009470C2F200002946FFF76EFD0028DCD107
:10108C0040F63C00C2F200004146FFF7E1FC60B1C3
:10109C0040F29471C2F20001044608462946FFF75B
:1010AC0083FD20465DF8048BF0BD31680220A06101
:1010BC00481C306000205DF8048BF0BDF0B503AF28
:1010CC002DE9000B40F29076C2F20006306802283F
:1010DC001ED140F65005C2F200052868C0B140F69A
:1010EC005404C2F20004206890B140F29470C2F231
:1010FC000000FFF793FD58B1FFF79CFC296888426C
:10110C0006D140F29470C2F20000FFF7A5FD20B1A9
:10111C0003203060BDE8000BF0BD40F29470C2F2C9
:10112C000000FFF77BFD0028F2D0FFF783FC81461F
:10113C00FFF768FE0028EBD02868FFF7DDFD80463E
:10114C004846FFF7D9FD296889450BD0D8F8181007
:10115C000329DDD181690229DAD10221C8F81810DE
:10116C0003218161C5F800902060BDE8000BF0BD43
:10117C00B0B502AFFFF778FE40F29075C2F20005F1
:10118C002868012825D140F29470C2F20000FFF7C4
:10119C0045FD00B3FFF74EFC0446FFF733FED0B11C
:1011AC002046FFF7A9FD0146806902284FF0020096
:1011BC0012D103228A6140F65002C2F2000214607E
:1011CC0040F65402C2F20002116028600020012196
:1011DC0003E0022000E00A200021002908BFB0BD76
:1011EC00FEF77EFF032028600A20B0BD40F290700D
:1011FC00C2F2000000680238B0FA80F04009704773
:10120C0040F65000C2F20000006870470B480C49D1
:10121C000C4A914204D250F8043B41F8043BF8E7E5
:10122C0009480A490022884202D240F8042BFAE706
:10123C00FEF78EFFFFF7BCFAFEE70000FC14000877
:10124C00000000200400002008000020A00B00205B
:10125C0000BEFDE7010001000100010001000100DA
:10126C000100010002000400080010004000800092
:10127C000001000201010101020408107461736B8A
:10128C002D62004861697252544F5320506861734B
:10129C006520350069646C65005374617274696E05
:1012AC0067207461736B2041207468726F75676876
:1012BC00205356433B2065616368207969656C64F3
:1012CC002070656E64732050656E6453562E00005A
:1012DC004552524F523A2068725F6B65726E656C64
:1012EC005F73746172742072657475726E656420BC
:1012FC007374617475733D004552524F523A2077A6
:10130C00726F6E672063757272656E742074617390
:10131C006B20696E200054776F20657175616C2DA0
:10132C007072696F72697479207461736B73207356
:10133C00776974636820636F6F7065726174697626
:10134C00656C79207468726F7567682050656E647F
:10135C0053562E000D0A005461736B2042206372A9
:10136C00656174696F6E206661696C65642E0043FB
:10137C006F726520636C6F636B3A2000436C6F6314
:10138C006B20736F757263653A2048534520382083
:10139C004D487A202D3E20504C4C207839007461F9
:1013AC00736B3D41206C6F63616C5F636F756E7422
:1013BC0065723D0020487A004B65726E656C206941
:1013CC006E697469616C697A6174696F6E206661AB
:1013DC00696C65642E007461736B3D42206C6F63A5
:1013EC00616C5F636F756E7465723D00426F617204
:1013FC00643A20426C75652050696C6C2053544DD6
:10140C0033324631303343385436005461736B20D9
:10141C00726567697374726174696F6E2066616955
:10142C006C65642E004861697252544F5320706C85
:10143C006174666F726D20626F6F74005741524E0B
:10144C00494E473A204853452F504C4C20737461F9
:10145C0072747570206661696C65643B2075736984
:10146C006E67204853492066616C6C6261636B0047
:10147C007461736B2041004552524F523A20636F96
:10148C006F7065726174697665207461736B206925
:10149C0073206E6F74207573696E67205053502ED5
:1014AC00007461736B2D6100202D3E207969656C91
:1014BC0064007461736B2042005461736B20412093
:1014CC006372656174696F6E206661696C65642E08
:1014DC0000D4D4D404000000080000001000000068
:1014EC0000ECFF7F010000006CFDFF7F010000009D
:0414FC0000127A0060
:0400000508001219C4
:00000001FF
